:100000000C947D000C94A5000C94A5000C94A50004
:100010000C94A5000C94A5000C94A5000C94A500CC
:100020000C94A5000C94A5000C94A5000C94F50765
:100030000C94A5000C94A5000C94A5000C94A500AC
:100040000C9404020C94A5000C9402040C94450436
:100050000C94A5000C94A5000C94A5000C94A5008C
:100060000C94A5000C94A5000000000700020100FC
:100070000003040600000000000000000102040864
:100080001020408001020408102001020408102002
:10009000040404040404040402020202020203032E
:1000A0000303030300000000250028002B000000CC
:1000B0000000240027002A004E414E494E49545961
:1000C000494E46CDCCCC3D0AD7233C17B7D1387723
:1000D000CC2B329595E6241FB14F0A000020410039
:1000E00000C84200401C4620BCBE4CCA1B0E5AAE83
:1000F000C59D7400A5010105B50111241FBECFEFF8
:10010000D8E0DEBFCDBF11E0A0E0B1E0E4EAF0E26C
:1001100002C005900D92AE39B107D9F713E0AEE9F0
:10012000B1E001C01D92A232B107E1F710E0C8EFC3
:10013000D0E004C02297FE010E944110C43FD107C5
:10014000C9F70E9457050C94920B0C94000082EAA8
:1001500091E00E94F40786EB91E00E94F4078AEC9C
:1001600091E00E94F4078EED91E00C94F407CF9299
:10017000DF92EF92FF920F931F93CF93DF93CDB750
:10018000DEB764970FB6F894DEBF0FBECDBF86E032
:10019000C82ED12C9AE1E92EF12C00E213E028E9D7
:1001A00038E044E650E061E070E0CE0101960E9444
:1001B000DC0684E1FE013196AEEDB1E001900D92D6
:1001C0008A95E1F7CE0101960E94F40740E855E2D6
:1001D00060E070E08CE492E00E94800462E171E0F3
:1001E0008CE492E00E94060664960FB6F894DEBF97
:1001F0000FBECDBFDF91CF911F910F91FF90EF9078
:10020000DF90CF900895BF92CF92DF92EF92FF924E
:100210000F931F93CF93DF93CDB7DEB727970FB61A
:10022000F894DEBF0FBECDBF69E671E082EF91E0CA
:100230000E949D0B7C0110E0E114F10409F475C0EB
:1002400060910A0170910B01C7010E94AB0B892BD1
:1002500009F45AC06091080170910901C7010E9418
:10026000AB0B892B09F453C0609106017091070113
:10027000C7010E94AB0B892B09F44BC060910401AC
:1002800070910501C7010E94AB0B892B09F444C092
:10029000DD2029F1C7010E948E0B0E94D40C6B0156
:1002A0007C016DE271E08CE492E00E94D7054AE0A7
:1002B000B601CE0101960E949E06BE016F5F7F4F80
:1002C0008CE492E00E94F405CE0101960E9418068B
:1002D000B6018EED91E00E943D07D12C1EC0002397
:1002E00029F0C7010E948E0B00E017C0BB2029F047
:1002F000C7010E948E0BB12C10C0112371F0C701F1
:100300000E948E0B10E009C0DD24D39406C001E0EA
:1003100004C0BB24B39401C011E069E671E080E041
:1003200090E00E949D0B7C0187CF27960FB6F89432
:10033000DEBF0FBECDBFDF91CF911F910F91FF9018
:10034000EF90DF90CF90BF9008958EED91E00E94E6
:1003500019078AEC91E00E94190786EB91E00E9450
:10036000190782EA91E00C9419070C94A700CF9327
:10037000C1E08CE492E00E946A031816190664F545
:100380008CE492E00E9497038E3321F41092A10135
:10039000C093A0019091A001992359F3E091A1018C
:1003A000E03519F41092A10117C08B3351F4F0E03D
:1003B000EE50FE4F10821092A0011092A10181E038
:1003C0000CC08E33B1F291E09E0F9093A101F0E04A
:1003D000EE50FE4F8083CDCF80E0CF91089561E055
:1003E0008DE00E9434038CE492E00E946A03892B22
:1003F00029F00E94B70181110E94030164E670E0B8
:1004000080E090E00C9471021F920F920FB60F9251
:1004100011242F933F938F939F93AF93BF9380911A
:10042000440290914502A0914602B091470230915A
:10043000430223E0230F2D3720F40196A11DB11DA7
:1004400005C026E8230F0296A11DB11D209343028B
:100450008093440290934502A0934602B0934702D2
:100460008091480290914902A0914A02B0914B02BA
:100470000196A11DB11D8093480290934902A0935B
:100480004A02B0934B02BF91AF919F918F913F91E0
:100490002F910F900FBE0F901F9018953FB7F894B3
:1004A0008091480290914902A0914A02B0914B027A
:1004B00026B5A89B05C02F3F19F00196A11DB11DBF
:1004C0003FBF6627782F892F9A2F620F711D811DDC
:1004D000911D42E0660F771F881F991F4A95D1F73B
:1004E0000895CF92DF92EF92FF92CF93DF936B014B
:1004F0007C010E944E02EB01C114D104E104F1041D
:1005000079F00E944E026C1B7D0B683E7340A0F395
:1005100081E0C81AD108E108F108C851DC4FECCFDE
:10052000DF91CF91FF90EF90DF90CF900895789476
:1005300084B5826084BD84B5816084BD85B58260E8
:1005400085BD85B5816085BDEEE6F0E08081816086
:100550008083E1E8F0E01082808182608083808186
:1005600081608083E0E8F0E0808181608083E1EB5E
:10057000F0E0808184608083E0EBF0E08081816046
:100580008083EAE7F0E080818460808380818260FC
:1005900080838081816080838081806880831092E5
:1005A000C1000895833081F028F4813099F08230C1
:1005B000A1F008958630A9F08730B9F08430D1F4E5
:1005C000809180008F7D03C0809180008F77809321
:1005D0008000089584B58F7702C084B58F7D84BD77
:1005E00008958091B0008F7703C08091B0008F7D17
:1005F0008093B0000895CF93DF9390E0FC01E4581E
:10060000FF4F2491FC01E057FF4F8491882349F16B
:1006100090E0880F991FFC01E255FF4FA591B4911E
:100620008C559F4FFC01C591D4919FB7611108C0B3
:10063000F8948C91209582238C93888182230AC020
:10064000623051F4F8948C91322F309583238C933F
:100650008881822B888304C0F8948C91822B8C93A0
:100660009FBFDF91CF9108950F931F93CF93DF9397
:100670001F92CDB7DEB7282F30E0F901E859FF4FC0
:100680008491F901E458FF4F1491F901E057FF4FAD
:1006900004910023C9F0882321F069830E94D202CB
:1006A0006981E02FF0E0EE0FFF1FEC55FF4FA591A1
:1006B000B4919FB7F8948C91611103C01095812378
:1006C00001C0812B8C939FBF0F90DF91CF911F9121
:1006D0000F910895FC0124853585F901E05CFF4FF9
:1006E00080819181F901EE5BFF4F20813181821B76
:1006F000930B8F7399270895FC0184859585FC01E0
:10070000E05CFF4F40815181FC01EE5BFF4F208197
:1007100031814217530741F00190F081E02DE80F3D
:10072000F91F808190E008958FEF9FEF0895FC01FD
:1007300084859585FC01E05CFF4F40815181FC017F
:10074000EE5BFF4F208131814217530779F0A08182
:10075000B181A80FB91F8C91208131812F5F3F4F4C
:100760002F7333273183208390E008958FEF9FEF1D
:100770000895FC0181A1882329F0A489B5898C9171
:1007800086FFFBCF11A20895CF93DF93FC0126854E
:100790003785D901A05CBF4F8D919C91119701962F
:1007A0008F739927E901CE5BDF4F48815981841708
:1007B0009507D9F30D90BC91A02DA20FB31F6C9398
:1007C000A685B785A05CBF4F11969C938E93A68992
:1007D000B7892C9181E090E0078C02C0880F991FA7
:1007E0000A94E2F7282B2C9381E081A30488F589F1
:1007F000E02D80818064808381E090E0DF91CF9163
:10080000089508951F920F920FB60F9211242F93FF
:100810003F934F938F939F93EF93FF938091C000EB
:1008200082FD1CC04091C6008091F2029091F302BB
:1008300001968F7399272091F4023091F502821767
:10084000930771F0E091F202F091F302EE54FD4F44
:1008500040839093F3028093F20202C08091C6001D
:10086000FF91EF919F918F914F913F912F910F9019
:100870000FBE0F901F9018958CE492E00E946A03BF
:10088000892B11F00C94010408951F920F920FB65A
:100890000F9211242F933F938F939F93EF93FF9386
:1008A0002091AE023091AF028091B0029091B102DE
:1008B0002817390731F48091C1008F7D8093C100E2
:1008C00014C0E091B002F091B102E259FD4F2081D5
:1008D0008091B0029091B10201968F739927909305
:1008E000B1028093B0022093C600FF91EF919F91D7
:1008F0008F913F912F910F900FBE0F901F901895E1
:10090000CF92DF92EF92FF92CF93DF93EC016A01D7
:100910007B01411581EE580761057105F9F0EC89FD
:10092000FD8981E090E008A002C0880F991F0A9419
:10093000E2F7808360E079E08DE390E0A701960123
:100940000E94D70F21503109410951095695479509
:1009500037952795211580E1380798F0EC89FD89B6
:10096000108260E874E88EE190E0A70196010E9491
:10097000D70F2150310941095109569547953795AF
:100980002795E889F9893083EA89FB89208319A2B0
:10099000EE89FF89408181E090E09C010C8C02C0CF
:1009A000220F331F0A94E2F7422B4083EE89FF891E
:1009B00040819C010D8C02C0220F331F0A94E2F784
:1009C000422B4083EE89FF8940819C010E8C02C03E
:1009D000220F331F0A94E2F7422B4083EE89FF89EE
:1009E00020810F8C02C0880F991F0A94E2F780952E
:1009F00082238083DF91CF91FF90EF90DF90CF90A3
:100A0000089510924F0210924E0288EE93E0A0E0FB
:100A1000B0E08093500290935102A0935202B093A1
:100A200053028FE691E090934D0280934C0282EB4B
:100A300092E090935902809358028EE692E0909350
:100A40005B0280935A0285EC90E090935D02809364
:100A50005C0284EC90E090935F0280935E0280ECF5
:100A600090E0909361028093600281EC90E090931B
:100A700063028093620282EC90E09093650280931F
:100A8000640286EC90E0909367028093660284E0B3
:100A90008093680283E08093690287E080936A0212
:100AA00085E080936B0281E080936C0208950E9440
:100AB00097020E94B700CCE3D4E00E94EF01209798
:100AC000E1F30E943C04F9CFCF92DF92EF92FF92C4
:100AD0000F931F93CF93DF936C017A01EB01E60E26
:100AE000F71E00E010E0CE15DF0561F06991D60138
:100AF000ED91FC910190F081E02DC6010995080F60
:100B0000191FF1CFC801DF91CF911F910F91FF9075
:100B1000EF90DF90CF9008956115710581F0DB01B2
:100B20000D900020E9F7AD0141505109461B570BCC
:100B3000DC01ED91FC910280F381E02D099480E0CD
:100B400090E00895AF92BF92CF92DF92EF92FF9222
:100B50000F931F93CF93DF937C016B01C0E0D0E034
:100B600000E010E0D60114968D919C911597C8175E
:100B7000D90788F4D701ED91FC91A080B180BE0126
:100B8000C6010E94CB06682FC701F5010995080F21
:100B9000191F2196E7CFC801DF91CF911F910F91C7
:100BA000FF90EF90DF90CF90BF90AF9008950C949E
:100BB0008C05DC01ED91FC910190F081E02D099410
:100BC0000F931F93CF93DF93EC016DE00E94D90543
:100BD0008C016AE0CE010E94D905800F911FDF9140
:100BE000CF911F910F9108950F931F93CF93DF9390
:100BF000EC010E94A2058C01CE010E94E005800F4D
:100C0000911FDF91CF911F910F9108950F931F9323
:100C1000CF93DF93EC010E948C058C01CE010E94E2
:100C2000E005800F911FDF91CF911F910F910895E3
:100C3000FC01808191810C94160ACF93DF93EC0123
:100C400088819981009711F00E94160A19821882F2
:100C50001D821C821B821A82DF91CF9108950F930F
:100C60001F93CF93DF93EC018B016F5F7F4F8881E0
:100C700099810E94A50A009731F0998388831B838C
:100C80000A8381E001C080E0DF91CF911F910F9135
:100C90000895CF93DF93EC0188819981892B29F006
:100CA0008A819B818617970760F4CE010E942F06E8
:100CB000882341F08C819D81892B19F4E881F98189
:100CC000108281E0DF91CF910895EF92FF920F9310
:100CD0001F93CF93DF93EC017B018A01BA010E943D
:100CE0004906811104C0CE010E941D0607C01D8364
:100CF0000C83B701888199810E94B40BCE01DF91EA
:100D0000CF911F910F91FF90EF900895CF93DF93B4
:100D1000EC016115710561F0FB0101900020E9F71C
:100D2000AF0141505109461B570B0E94650602C096
:100D30000E941D06CE01DF91CF9108950F931F935E
:100D4000CF93DF93CDB7DEB762970FB6F894DEBFCF
:100D50000FBECDBF8C01CB01F8011182108213822E
:100D6000128215821482168250E0BE016F5F7F4F9F
:100D70000E94E20BBE016F5F7F4FC8010E94860692
:100D800062960FB6F894DEBF0FBECDBFDF91CF9154
:100D90001F910F910895FC0124813581621773071B
:100DA00048F480819181009729F0FC01E60FF71F3C
:100DB0008081089580E00895CF92DF92EF92FF92B4
:100DC0000F931F93CF93DF93EC01198218821B823C
:100DD0001A825D834C833F832E83198708877B8724
:100DE0006A87FD86EC86DF86CE868C01005F1F4F0A
:100DF000C8010E94B1081B8A2E813F814885598510
:100E00006C857D85C8010E94CD0861E08E850E94B9
:100E1000FB0240E855E260E070E08CE492E0DF9194
:100E2000CF911F910F91FF90EF90DF90CF900C9496
:100E30008004CF93DF93EC018FEF9FEF998388833A
:100E40009B838A839D838C839F838E8399878887E6
:100E50009B878A879D878C879F878E87CE01409648
:100E60000E94B1081B8A40E855E260E070E08CE423
:100E700092E0DF91CF910C9480044F925F926F9239
:100E80007F92AF92BF92CF92DF92EF92FF920F9339
:100E90001F93CF93DF93CDB7DEB727970FB6F894A4
:100EA000DEBF0FBECDBF8C013B0177FF05C081E0E7
:100EB000F801838B61E003C0FC01138A60E0868542
:100EC0000E943403F80171826082A084B184B5016C
:100ED000882777FD8095982F0E94070D6B017C0174
:100EE000B301882777FD8095982F0E94070D2B016D
:100EF0003C01F80164817581882777FD8095982FE2
:100F00000E94070D9B01AC01C301B2010E946C0C51
:100F10002B013C01F801668177816A197B098827DA
:100F200077FD8095982F0E94070D9B01AC01C301AE
:100F3000B2010E94B70D9B01AC01C701B6010E942E
:100F4000040C0E94D40CF801738362836BE771E098
:100F50008CE492E00E94D705F801628573854AE02F
:100F6000CE0101960E949E06BE016F5F7F4F8CE40A
:100F700092E00E94A205CE0101960E94180664E448
:100F800071E08CE492E00E94D705F80162817381E0
:100F90004AE0CE0101960E949E06BE016F5F7F4F20
:100FA0008CE492E00E94F405CE0101960E9418069E
:100FB000F80162817381C80140960E944B0927960F
:100FC0000FB6F894DEBF0FBECDBFDF91CF911F915A
:100FD0000F91FF90EF90DF90CF90BF90AF907F90F8
:100FE0006F905F904F90089508951F920F920FB6E3
:100FF0000F9211242F933F934F935F936F937F939F
:101000008F939F93AF93BF93EF93FF938091F702DA
:1010100087FF05C010928500109284001AC02091AD
:10102000F702332727FD30958091F60290E02817CC
:1010300039077CF48091F702992787FD9095FC0190
:10104000EE0FFF1FE80FF91FE850FD4F808186FD6E
:1010500015C08091F7028F5F8093F7022091F7020D
:10106000332727FD30958091F60290E02817390745
:10107000BCF48091F7028C305CF112C08091F702D1
:10108000992787FD9095FC01EE0FFF1FE80FF91FD0
:10109000E850FD4F808160E08F730E943403D9CF08
:1010A0008091840090918500049680349C4918F4C6
:1010B00080E49CE905C080918400909185000496AD
:1010C00090938900809388008FEF8093F70238C057
:1010D00080918400909185002091F702332727FDAD
:1010E0003095F901EE0FFF1FE20FF31FE850FD4F9F
:1010F00021813281820F931F909389008093880011
:101100008091F702992787FD9095FC01EE0FFF1F54
:10111000E80FF91FE850FD4F808186FF11C08091D4
:10112000F702992787FD9095FC01EE0FFF1FE80F4E
:10113000F91FE850FD4F808161E08F730E943403F6
:10114000FF91EF91BF91AF919F918F917F916F919F
:101150005F914F913F912F910F900FBE0F901F9075
:1011600018952091F6022C30A0F431E0320F309324
:10117000F602FC012083822F90E0FC01EE0FFF1F9E
:10118000E80FF91FE850FD4F88EB9BE092838183C5
:1011900008952FEFFC0120830895DF92EF92FF92D4
:1011A0000F931F93CF93DF93EC01D62E7A01890121
:1011B00088818C3008F066C061E08D2D0E94FB02B2
:1011C0008881A82FB0E0FD01EE0FFF1FEA0FFB1F83
:1011D000E850FD4F2D2D2F739081907C922B9083A2
:1011E00060E272E06E197F0977FF02C06D5F7F4F8A
:1011F0007595679575956795698340E659E0401B3D
:10120000510B57FF02C04D5F5F4F55954795559560
:1012100047954A836CE00E94B70F9CE0899FB0011C
:10122000112420E030E0A901460F571FFA01EE0F0C
:10123000FF1FE40FF51FE850FD4F908196FD16C08B
:101240002F5F3F4F2C30310571F781110FC0109285
:10125000800082E0809381001092850010928400CB
:10126000B19A80916F00826080936F00888190E0D6
:10127000FC01EE0FFF1FE80FF91FE850FD4F8081C2
:10128000806480838881DF91CF911F910F91FF90BF
:10129000EF90DF900895FC0180818C3070F5918192
:1012A00028E830E0291B310997FD3395220F331FC1
:1012B000220F331F621773077CF0928128E532E01A
:1012C000291B310997FD3395220F331F220F331F3E
:1012D000621773070CF49B014FB7F89490E0FC0180
:1012E000EE0FFF1FE80FF91FE850FD4F22503109A4
:1012F000220F331F328321834FBF0895CF93DF9393
:101300008230910510F482E090E0E0911E03F091AC
:101310001F0320E030E0A0E0B0E0309739F14081D9
:10132000518148175907B8F04817590771F482815D
:101330009381109729F013969C938E9312972CC04B
:1013400090931F0380931E0327C02115310531F0B0
:101350004217530718F0A901DB0101C0EF019A0100
:10136000BD01DF010280F381E02DD7CF21153105CA
:10137000F9F0281B390B2430310580F48A819B81D8
:101380006115710521F0FB019383828304C0909362
:101390001F0380931E03FE01329644C0FE01E20F3C
:1013A000F31F8193919322503109398328833AC0E6
:1013B00020911C0330911D03232B41F420910E0139
:1013C00030910F0130931D0320931C0320910C01D9
:1013D00030910D012115310541F42DB73EB74091F3
:1013E000100150911101241B350BE0911C03F09169
:1013F0001D03E217F307A0F42E1B3F0B2817390734
:1014000078F0AC014E5F5F4F2417350748F04E0F60
:101410005F1F50931D0340931C038193919302C05F
:10142000E0E0F0E0CF01DF91CF910895CF93DF931B
:10143000009709F487C0FC01329713821282C09191
:101440001E03D0911F03209781F420813181280F42
:10145000391F80911C0390911D038217930779F522
:10146000F0931D03E0931C036DC0DE0120E030E02B
:10147000AE17BF0750F412964D915C9113979D01E2
:101480004115510509F1DA01F3CFB383A2834081FD
:101490005181840F951F8A179B0771F48D919C9140
:1014A0001197840F951F02969183808312968D91D8
:1014B0009C911397938382832115310529F4F0932E
:1014C0001F03E0931E033EC0D9011396FC93EE93D5
:1014D00012974D915D91A40FB51FEA17FB0779F4A0
:1014E00080819181840F951F0296D90111969C935A
:1014F0008E938281938113969C938E931297E0E052
:10150000F0E08A819B81009719F0FE01EC01F9CF90
:10151000CE01029628813981820F931F20911C03EE
:1015200030911D032817390769F4309729F4109278
:101530001F0310921E0302C013821282D0931D0358
:10154000C0931C03DF91CF9108956F927F928F9289
:101550009F92AF92BF92CF92DF92EF92FF920F9342
:101560001F93CF93DF93EC01CB01209781F4DF91A0
:10157000CF911F910F91FF90EF90DF90CF90BF9090
:10158000AF909F908F907F906F900C947E09FE019A
:10159000E60FF71F9E0122503109E217F30708F406
:1015A000ACC0D9010D911C91119706171707B8F01F
:1015B0000530110508F49FC0A80144505109461791
:1015C000570708F498C002501109061B170B019326
:1015D00011936D937C93CF010E94160A8CC05B011E
:1015E000A01AB10A4E01800E911EA0911E03B09167
:1015F0001F03612C712C60E070E0109709F449C062
:10160000A815B905C9F5ED90FC901197670142E066
:10161000C40ED11CCA14DB0478F147018A189B0858
:10162000640142E0C40ED11C1296BC90129713962E
:10163000AC91B5E0CB16D10440F0B282A383918285
:101640008082D9018D939C9309C00E5F1F4F0E0DB0
:101650001F1DF90111830083EB2DFA2F6115710510
:1016600031F0DB011396FC93EE93129744C0F09394
:101670001F03E0931E033FC06D917C911197661686
:10168000770608F43B01BD0112960D90BC91A02D88
:10169000B4CF60911C0370911D0368157905E9F4BE
:1016A00068167906D0F440910C0150910D01411556
:1016B000510541F44DB75EB7609110017091110171
:1016C000461B570BE417F507C0F4F0931D03E09396
:1016D0001C03F901918380830EC00E947E097C0166
:1016E000009759F0A801BE010E94A20BCE010E94F2
:1016F000160AC70104C0CE0102C080E090E0DF916D
:10170000CF911F910F91FF90EF90DF90CF90BF90FE
:10171000AF909F908F907F906F9008956627772766
:101720000C941A0EF8940C9445109111EAC380326F
:1017300019F089508550D0F708954EE951E00E9484
:10174000BB0B0895FB01DC0102C001900D924150DA
:101750005040D8F70895FB01DC018D91019080196C
:101760000110D9F3990B0895FB01DC0101900D9252
:101770000020E1F70895FA01A191B081009719F4D2
:101780001097E1F0CD01DC01CD010D90002011F4A6
:10179000C00113C0FB012191222319F02015D9F7B4
:1017A000F3CFFB012191201519F41E92119606C06A
:1017B0002223C1F70D900020A1F7D001FA01A193D7
:1017C000B0830895FB019F01E8944230C4F0453294
:1017D000B4F44A3029F497FB1EF4909581959F4FFD
:1017E000642F77270E94C30F805D8A330CF0895DD8
:1017F0008193CB010097A1F716F45DE2519310821B
:10180000C9010C949C0F5058BB27AA270ED075C154
:1018100066D130F06BD120F031F49F3F11F41EF40B
:101820005BC10EF4E095E7FB51C1E92F77D180F35E
:10183000BA17620773078407950718F071F49EF5CD
:101840008FC10EF4E0950B2EBA2FA02D0B01B9011C
:1018500090010C01CA01A0011124FF27591B99F026
:10186000593F50F4503E68F11A16F040A22F232F32
:10187000342F4427585FF3CF469537952795A79582
:10188000F0405395C9F77EF41F16BA0B620B730B29
:10189000840BBAF09150A1F0FF0FBB1F661F771F9A
:1018A000881FC2F70EC0BA0F621F731F841F48F44F
:1018B000879577956795B795F7959E3F08F0B3CFD5
:1018C0009395880F08F09927EE0F979587950895BF
:1018D000D9D008F481E008950CD00FC107D140F0B1
:1018E000FED030F021F45F3F19F0F0C0511139C142
:1018F000F3C014D198F39923C9F35523B1F3951B81
:10190000550BBB27AA2762177307840738F09F5F20
:101910005F4F220F331F441FAA1FA9F333D00E2E8F
:101920003AF0E0E830D091505040E695001CCAF7FC
:1019300029D0FE2F27D0660F771F881FBB1F2617C1
:1019400037074807AB07B0E809F0BB0B802DBF0194
:10195000FF2793585F4F2AF09E3F510568F0B6C0AD
:1019600000C15F3FECF3983EDCF386957795679571
:10197000B795F7959F5FC9F7880F911D9695879545
:1019800097F90895E1E0660F771F881FBB1F621764
:1019900073078407BA0720F0621B730B840BBA0B22
:1019A000EE1F88F7E095089504D06894B111D9C06E
:1019B0000895BCD088F09F5790F0B92F9927B75160
:1019C000A0F0D1F0660F771F881F991F1AF0BA9503
:1019D000C9F712C0B13081F0C3D0B1E00895C0C0E2
:1019E000672F782F8827B85F39F0B93FCCF38695F9
:1019F00077956795B395D9F73EF490958095709556
:101A000061957F4F8F4F9F4F0895E89409C097FBD2
:101A10003EF490958095709561957F4F8F4F9F4FC5
:101A20009923A9F0F92F96E9BB279395F695879509
:101A300077956795B795F111F8CFFAF4BB0F11F4CC
:101A400060FF1BC06F5F7F4F8F4F9F4F16C0882373
:101A500011F096E911C0772321F09EE8872F762FA9
:101A600005C0662371F096E8862F70E060E02AF0EA
:101A70009A95660F771F881FDAF7880F96958795D6
:101A800097F90895990F0008550FAA0BE0E8FEEFAB
:101A900016161706E807F907C0F012161306E40732
:101AA000F50798F0621B730B840B950B39F40A262B
:101AB00061F0232B242B252B21F408950A2609F409
:101AC000A140A6958FEF811D811D089597F99F670D
:101AD00080E870E060E008959FEF80EC08950024B6
:101AE0000A941616170618060906089500240A9483
:101AF00012161306140605060895092E0394000C09
:101B000011F4882352F0BB0F40F4BF2B11F460FF97
:101B100004C06F5F7F4F8F4F9F4F089557FD9058C0
:101B2000440F551F59F05F3F71F04795880F97FBA1
:101B3000991F61F09F3F79F087950895121613065B
:101B40001406551FF2CF4695F1DF08C0161617068A
:101B50001806991FF1CF86957105610508940895BF
:101B6000E894BB2766277727CB0197F908950BD018
:101B7000C4CFB5DF28F0BADF18F0952309F0A6CF5F
:101B8000ABCF1124EECFCADFA0F3959FD1F3950F11
:101B900050E0551F629FF001729FBB27F00DB11DF1
:101BA000639FAA27F00DB11DAA1F649F6627B00D81
:101BB000A11D661F829F2227B00DA11D621F739F6A
:101BC000B00DA11D621F839FA00D611D221F749F78
:101BD0003327A00D611D231F849F600D211D822FBF
:101BE000762F6A2F11249F5750408AF0E1F0882306
:101BF0004AF0EE0FFF1FBB1F661F771F881F915013
:101C00005040A9F79E3F510570F060CFAACF5F3FCB
:101C1000ECF3983EDCF3869577956795B795F79545
:101C2000E7959F5FC1F7FE2B880F911D96958795CD
:101C300097F90895A0E0B0E0E0E2FEE00C94FB0F1D
:101C40008B016115710521F0DB018C9311969C933A
:101C5000EC015E01BFEFAB1ABB0A7501C8808C2D89
:101C600090E00E94950B892B11F0E501F2CFEDE297
:101C7000CE1208C07E01F2E0EF0EF11CC980DD2417
:101C8000D39409C02BE2C21205C07E0142E0E40EEB
:101C9000F11CC980D12CE701219743E050E060ECB2
:101CA00070E0CE010E94840F892BD1F4E7012296C7
:101CB00045E050E06BEB70E0CE010E94840F892B71
:101CC00011F4E70127960115110519F0D801CD93FC
:101CD000DC93D11008C160E070E080E89FE70CC1A0
:101CE00043E050E068EB70E0CE010E94840F892B46
:101CF00059F40115110509F4FBC0B2E0EB0EF11C1B
:101D0000F801F182E082F4C0F70160E070E0CB01FD
:101D1000C0E0D0E07F01A0EDAA2EAC0C29E02A158E
:101D200030F14D2D4260B42E2D2D2870D2FE04C00E
:101D3000211125C0219623C021112197A5E0B0E0F3
:101D40009B01AC010E94AC0F660F771F881F991F83
:101D50006A0D711D811D911D6839A9E97A078A07ED
:101D6000A9E19A0760F0BD2DB660BB2E08C02EEF2A
:101D7000A2120AC0D3FC50C04D2D4860B42E31963B
:101D8000D701CC90DB2CC6CF2C2D2F7D253409F02C
:101D900043C0A081AD3241F4BD2DB061DB2E7F0187
:101DA00022E0E20EF11C0CC07F01AB3231F04FEFAC
:101DB000E41AF40A21E030E006C0A2E0EA0EF11CC9
:101DC000A18122E030E0A053AA3018F0E21AF30A11
:101DD00023C0F70120E030E02038BCE03B075CF492
:101DE000A901440F551F440F551F240F351F220F03
:101DF000331F2A0F311DAF014F5F5F4F7A01A08162
:101E0000A053AA3010F4FA01E7CFD4FE03C03195F5
:101E100021953109C20FD31FD1FE09C0011511054B
:101E200031F0E1E0EE1AF108D801ED92FC920E9447
:101E3000050D2D2D2370233019F06B017C0106C098
:101E40006B017C01F7FAF094F7F8F09420E030E0B1
:101E5000A901C701B6010E94680C882309F440C09B
:101E6000D7FF06C0D195C195D10907ED10E002C09A
:101E70000FEE10E04801B8E18B1A910890E2A92E0C
:101E8000B12CF8014590559065907490CA15DB050A
:101E90005CF0A3019201C701B6010E94B70D6B016E
:101EA0007C01CA19DB09F2CF04501109B594A7943B
:101EB0000815190531F78E2D880F8F2D881F8F3F3C
:101EC00049F020E030E0A901C701B6010E94680C8A
:101ED000811106C082E290E0909321038093200359
:101EE000C701B60109C060E070E080E89FEF04C060
:101EF00060E070E080EC9FE7CDB7DEB7E0E10C94E6
:101F00001710992788270895FB01DC0141505040A4
:101F100088F08D9181341CF08B350CF4805E6591D6
:101F200061341CF06B350CF4605E861B611171F33B
:101F3000990B0895881BFCCFDC01FC01672F719180
:101F40007723E1F7329704C07C916D93708362919F
:101F5000AE17BF07C8F308950E943010A59F900DDB
:101F6000B49F900DA49F800D911D11240895991B7D
:101F700079E004C0991F961708F0961B881F7A9580
:101F8000C9F780950895AA1BBB1B51E107C0AA1F82
:101F9000BB1FA617B70710F0A61BB70B881F991F0A
:101FA0005A95A9F780959095BC01CD010895A1E2BD
:101FB0001A2EAA1BBB1BFD010DC0AA1FBB1FEE1FC3
:101FC000FF1FA217B307E407F50720F0A21BB30B0E
:101FD000E40BF50B661F771F881F991F1A9469F78A
:101FE00060957095809590959B01AC01BD01CF01E6
:101FF00008952F923F924F925F926F927F928F92AD
:102000009F92AF92BF92CF92DF92EF92FF920F9387
:102010001F93CF93DF93CDB7DEB7CA1BDB0B0FB691
:10202000F894DEBF0FBECDBF09942A88398848884E
:102030005F846E847D848C849B84AA84B984C884E4
:10204000DF80EE80FD800C811B81AA81B981CE0FDB
:10205000D11D0FB6F894DEBF0FBECDBFED010895C0
:10206000A29FB001B39FC001A39F700D811D1124D9
:10207000911DB29F700D811D1124911D0895EE0FC9
:10208000FF1F0590F491E02D099410E0C8EFD0E017
:1020900004C0FE010E9441102296CA3FD107C9F731
:0420A000F894FFCFE2
:1020A40001000000490151015901610100002203AE
:1020B4008000524F56206C697374656E696E672098
:1020C400746F20636F6D6D616E64732E00524F5692
:1020D40020747279696E6720746F736574207468F4
:1020E4007275737420746F20007374626456657221
:1020F40000706F72745665720073746264486F7214
:1021040000706F7274486F72002C0000000000C4ED
:102114000364056A0397037C03B90320202020533A
:10212400657474696E672070756C73652077696473
:0E213400746820666F72206D6F746F722000E9
:00000001FF
