:100000000C947D000C94A5000C94A5000C94A50004
:100010000C94A5000C94A5000C94A5000C94A500CC
:100020000C94A5000C94A5000C94A5000C94A109B7
:100030000C94A5000C94A5000C94A5000C94A500AC
:100040000C948B030C94A5000C9489050C94CC059E
:100050000C94A5000C94A5000C94A5000C94A5008C
:100060000C94A5000C94A5000000000700020100FC
:100070000003040600000000000000000102040864
:100080001020408001020408102001020408102002
:10009000040404040404040402020202020203032E
:1000A0000303030300000000250028002B000000CC
:1000B0000000240027002A004E414E494E49545961
:1000C000494E46CDCCCC3D0AD7233C17B7D1387723
:1000D000CC2B329595E6241FB14F0A000020410039
:1000E00000C84200401C4620BCBE4CCA1B0E5AAE83
:1000F000C59D74000D0288069D0211241FBECFEF1E
:10010000D8E0DEBFCDBF12E0A0E0B1E0E2EAF4E269
:1001100002C005900D92AC30B107D9F713E0ACE006
:10012000B2E001C01D92AD3DB107E1F710E0C8EFAC
:10013000D0E004C02297FE010E944012C43FD107C4
:10014000C9F70E94DE060C94910D0C940000CF922A
:10015000DF92EF92FF920F931F93CF93DF936AED9D
:1001600071E087E192E00E949C0D8C01CFEFDFEF00
:100170000115110509F43FC0CF3F8FEFD80739F4BF
:1001800098E0C92E91E0D92EE12CF12C1FC0CC0FA4
:10019000DD1FC85FDE4FE881F9810190F081E02D1D
:1001A000E080F180C8010E948D0D088119810E94B4
:1001B000D30EC801F7010995CFEFDFEF14C0FFEFB1
:1001C000EF1AFF0A88E0E816F10469F0F601819160
:1001D00091916F010E94790BBC01C8010E94AA0D88
:1001E000892B69F7E7016AED71E080E090E00E94F9
:1001F0009C0D8C01BDCFDF91CF911F910F91FF908E
:10020000EF90DF90CF900895EF92FF920F931F939E
:10021000CF93DF93CDB7DEB727970FB6F894DEBF45
:100220000FBECDBF6CE380E192E00E94820824E023
:10023000E22E21E0F22E00E010E0D7018D919C919A
:100240000E94790BBC01CE0101960E94E307BE011A
:100250006F5F7F4F80E192E00E946B08CE010196B4
:100260000E9475076AED71E080E192E00E947208D9
:10027000F701819191917F01DC01ED91FC91028068
:10028000F381E02D09954AE0BC01CE0101960E9460
:100290001208BE016F5F7F4F80E192E00E946B0801
:1002A000CE0101960E9475070115110531F46AED22
:1002B00071E080E192E00E9472080F5F1F4F0230F0
:1002C000110509F0BACF6BE380E192E00E94820849
:1002D00060E172E087E093E00E94630761EC71E007
:1002E00080E192E00E94FA0727960FB6F894DEBFED
:1002F0000FBECDBFDF91CF911F910F91FF90EF9077
:100300000895EF92FF920F931F93CF93DF93CDB792
:10031000DEB727970FB6F894DEBF0FBECDBF08E05B
:1003200011E0E12CF12CB1E008311B0781F0D8017C
:100330008D919D918D01DC01ED91FC910480F58101
:10034000E02D0995E816F90674F77C01ECCF809151
:10035000040190910501DC01ED91FC910480F5818F
:10036000E02D09958C018E159F050CF48701809175
:10037000060190910701DC01ED91FC910480F5816B
:10038000E02D0995081719070CF48C016CE380E146
:1003900092E00E9482086EE171E080E192E00E94AA
:1003A00072086AED71E080E192E00E9472084AE012
:1003B000B801CE0101960E941208BE016F5F7F4F07
:1003C00080E192E00E946B08CE0101960E947507C1
:1003D0006BE380E192E00E94820860E172E087E0D6
:1003E00093E00E94630761EC71E080E192E00E947B
:1003F000FA07B801882777FD8095982F0E94F803A7
:1004000027960FB6F894DEBF0FBECDBFDF91CF9118
:100410001F910F91FF90EF900895AF92BF92CF92EE
:10042000DF92EF92FF920F931F9369E271E087EFE3
:1004300092E00E94E3076EE271E080EF92E00E949A
:10044000E30738E0A32EB12C49E0C42ED12C5CE4A4
:10045000E52E54E0F52E00E213E028E938E044E60A
:1004600050E064E371E088ED92E00E945E0967E08D
:10047000A62EB12C76E0C72ED12C28E938E044E630
:1004800050E061E471E080EC92E00E945E09E4E0FB
:10049000AE2EB12CF5E0CF2ED12C28E938E044E681
:1004A00050E06EE471E088EA92E00E945E09A2E00A
:1004B000AA2EB12CB3E0CB2ED12C28E938E044E6AB
:1004C00050E06BE571E080E992E00E945E0968E629
:1004D00071E08AE892E00E94620B63E771E084E8D1
:1004E00092E00E94620B66E871E08EE792E00E9463
:1004F000620B62E971E088E792E00E94620B4FE0D4
:1005000050E06DE971E080E792E00E94310B40E13C
:1005100050E06AEA71E088E692E00E94310B61ECFB
:1005200071E080E192E01F910F91FF90EF90DF90DA
:10053000CF90BF90AF900C94E30780E192E00E94CF
:10054000750788E692E00E94500B80E792E00E94D7
:10055000500B88E792E00E94730B8EE792E00E94B6
:10056000730B84E892E00E94730B8AE892E00E9489
:10057000730B80E992E00E949A0988EA92E00E9457
:100580009A0980EC92E00E949A0988ED92E00E941C
:100590009A0980EF92E00E94750787EF92E00C9431
:1005A0007507CF93DF93CDB7DEB727970FB6F894D3
:1005B000DEBF0FBECDBF60E070E08AE892E00E942F
:1005C000570B6AE070E08EE792E00E94570B409173
:1005D0000A0250910B02662757FD6095762F87E03F
:1005E00093E00E94070668EB71E0CE0101960E943D
:1005F000E30767EF72E0CE0101960E9495086DEB6C
:1006000071E00E94A80860EF72E00E94950862EC19
:1006100071E00E94A808BC0187E093E00E94630794
:10062000CE0101960E94750727960FB6F894DEBF9B
:100630000FBECDBFDF91CF910895CF93C1E087E08A
:1006400093E00E94F1041816190664F587E093E020
:100650000E941E058E3321F410920F02C0930E02E9
:1006600090910E02992359F3E0910F02E03519F4AD
:1006700010920F0217C08B3351F4F0E0E95EFD4F8A
:10068000108210920E0210920F0281E00CC08E3385
:10069000B1F291E09E0F90930F02F0E0E95EFD4F02
:1006A0008083CDCF80E0CF91089561E08DE00E94FE
:1006B000BB0487E093E00E94F104892B29F00E949B
:1006C0001D0381110E94A7008AE892E00E945B0B43
:1006D000019741F40E94810160E070E08AE892E0B5
:1006E0000E94570B84E892E00E945B0B019741F453
:1006F0000E94040160E070E084E892E00E94570BE1
:100700008EE792E00E945B0BBC01882777FD809505
:10071000982F0C94F8031F920F920FB60F9211248A
:100720002F933F938F939F93AF93BF938091FF023B
:1007300090910003A0910103B09102033091FE0259
:1007400023E0230F2D3720F40196A11DB11D05C014
:1007500026E8230F0296A11DB11D2093FE0280936F
:10076000FF0290930003A0930103B09302038091D2
:10077000030390910403A0910503B0910603019631
:10078000A11DB11D8093030390930403A09305035F
:10079000B0930603BF91AF919F918F913F912F919D
:1007A0000F900FBE0F901F9018953FB7F89480914F
:1007B000030390910403A0910503B091060326B5AD
:1007C000A89B05C02F3F19F00196A11DB11D3FBF89
:1007D0006627782F892F9A2F620F711D811D911D19
:1007E00042E0660F771F881F991F4A95D1F7089539
:1007F000CF92DF92EF92FF92CF93DF936B017C0158
:100800000E94D503EB01C114D104E104F10479F095
:100810000E94D5036C1B7D0B683E7340A0F381E002
:10082000C81AD108E108F108C851DC4FECCFDF91BC
:10083000CF91FF90EF90DF90CF900895789484B59A
:10084000826084BD84B5816084BD85B5826085BDCC
:1008500085B5816085BDEEE6F0E0808181608083B2
:10086000E1E8F0E010828081826080838081816095
:100870008083E0E8F0E0808181608083E1EBF0E05C
:10088000808184608083E0EBF0E080818160808300
:10089000EAE7F0E0808184608083808182608083E9
:1008A0008081816080838081806880831092C10014
:1008B0000895833081F028F4813099F08230A1F0DE
:1008C00008958630A9F08730B9F08430D1F4809152
:1008D00080008F7D03C0809180008F77809380009F
:1008E000089584B58F7702C084B58F7D84BD089547
:1008F0008091B0008F7703C08091B0008F7D80938E
:10090000B0000895CF93DF9390E0FC01E458FF4FCF
:100910002491FC01E057FF4F8491882349F190E036
:10092000880F991FFC01E255FF4FA591B4918C559A
:100930009F4FFC01C591D4919FB7611108C0F894F5
:100940008C91209582238C93888182230AC0623007
:1009500051F4F8948C91322F309583238C938881B5
:10096000822B888304C0F8948C91822B8C939FBF38
:10097000DF91CF9108950F931F93CF93DF931F9231
:10098000CDB7DEB7282F30E0F901E859FF4F849149
:10099000F901E458FF4F1491F901E057FF4F04911A
:1009A0000023C9F0882321F069830E9459046981DA
:1009B000E02FF0E0EE0FFF1FEC55FF4FA591B49133
:1009C0009FB7F8948C91611103C01095812301C0E9
:1009D000812B8C939FBF0F90DF91CF911F910F912F
:1009E0000895FC0124853585F901E05CFF4F808185
:1009F0009181F901EE5BFF4F20813181821B930BC6
:100A00008F7399270895FC0184859585FC01E05C2E
:100A1000FF4F40815181FC01EE5BFF4F208131810E
:100A20004217530741F00190F081E02DE80FF91FC4
:100A3000808190E008958FEF9FEF0895FC018485F9
:100A40009585FC01E05CFF4F40815181FC01EE5B2C
:100A5000FF4F208131814217530779F0A081B18186
:100A6000A80FB91F8C91208131812F5F3F4F2F73C9
:100A700033273183208390E008958FEF9FEF08950F
:100A8000FC0181A1882329F0A489B5898C9186FF76
:100A9000FBCF11A20895CF93DF93FC012685378504
:100AA000D901A05CBF4F8D919C91119701968F73D6
:100AB0009927E901CE5BDF4F48815981841795075B
:100AC000D9F30D90BC91A02DA20FB31F6C93A685F6
:100AD000B785A05CBF4F11969C938E93A689B7896A
:100AE0002C9181E090E0078C02C0880F991F0A9436
:100AF000E2F7282B2C9381E081A30488F589E02D6F
:100B000080818064808381E090E0DF91CF910895BF
:100B100008951F920F920FB60F9211242F933F93B7
:100B20004F938F939F93EF93FF938091C00082FD2B
:100B30001CC04091C6008091AD039091AE03019618
:100B40008F7399272091AF033091B00382179307D9
:100B500071F0E091AD03F091AE03E359FC4F408397
:100B60009093AE038093AD0302C08091C600FF91C5
:100B7000EF919F918F914F913F912F910F900FBEC9
:100B80000F901F90189587E093E00E94F104892B45
:100B900011F00C94880508951F920F920FB60F92D2
:100BA00011242F933F938F939F93EF93FF93209163
:100BB000690330916A0380916B0390916C0328174D
:100BC000390731F48091C1008F7D8093C10014C03A
:100BD000E0916B03F0916C03E75DFC4F2081809105
:100BE0006B0390916C0301968F73992790936C031C
:100BF00080936B032093C600FF91EF919F918F919B
:100C00003F912F910F900FBE0F901F901895CF928C
:100C1000DF92EF92FF92CF93DF93EC016A017B01A9
:100C2000411581EE580761057105F9F0EC89FD89E0
:100C300081E090E008A002C0880F991F0A94E2F7B3
:100C4000808360E079E08DE390E0A70196010E9447
:100C5000D6112150310941095109569547953795CB
:100C60002795211580E1380798F0EC89FD891082DD
:100C700060E874E88EE190E0A70196010E94D61129
:100C800021503109410951095695479537952795C6
:100C9000E889F9893083EA89FB89208319A2EE89E2
:100CA000FF89408181E090E09C010C8C02C0220F02
:100CB000331F0A94E2F7422B4083EE89FF8940817B
:100CC0009C010D8C02C0220F331F0A94E2F7422BC5
:100CD0004083EE89FF8940819C010E8C02C0220F67
:100CE000331F0A94E2F7422B4083EE89FF8920816B
:100CF0000F8C02C0880F991F0A94E2F78095822317
:100D00008083DF91CF91FF90EF90DF90CF90089597
:100D100010920A031092090388EE93E0A0E0B0E07D
:100D200080930B0390930C03A0930D03B0930E03D9
:100D300080EE91E090930803809307038DE693E0A3
:100D4000909314038093130389E293E09093160326
:100D50008093150385EC90E090931803809317031C
:100D600084EC90E090931A038093190380EC90E058
:100D700090931C0380931B0381EC90E090931E03DF
:100D800080931D0382EC90E09093200380931F03D7
:100D900086EC90E0909322038093210384E080937B
:100DA000230383E08093240387E08093250385E079
:100DB0008093260381E08093270308950E941E04F8
:100DC0000E94D102C3ECD5E00E9455032097E1F3C5
:100DD0000E94C305F9CFCF92DF92EF92FF920F935B
:100DE0001F93CF93DF936C017A01EB01E60EF71EA0
:100DF00000E010E0CE15DF0561F06991D601ED91BC
:100E0000FC910190F081E02DC6010995080F191F92
:100E1000F1CFC801DF91CF911F910F91FF90EF901B
:100E2000DF90CF900895AF92BF92CF92DF92EF9272
:100E3000FF920F931F93CF93DF937C016B01C0E070
:100E4000D0E000E010E0D60114968D919C911597AA
:100E5000C817D90788F4D701ED91FC91A080B18023
:100E6000BE01C6010E94C208682FC701F50109959D
:100E7000080F191F2196E7CFC801DF91CF911F916D
:100E80000F91FF90EF90DF90CF90BF90AF900895BB
:100E9000DC01ED91FC910190F081E02D09940F931C
:100EA0001F93CF93DF93EC016DE00E9448078C0104
:100EB0006AE0CE010E944807800F911FDF91CF9119
:100EC0001F910F9108950F931F93CF93DF93EC0120
:100ED0000E9413078C01CE010E944F07800F911FC3
:100EE000DF91CF911F910F910895FC018081918135
:100EF0000C94150CCF93DF93EC01888199810097B6
:100F000011F00E94150C198218821D821C821B820E
:100F10001A82DF91CF9108950F931F93CF93DF93A0
:100F2000EC018B016F5F7F4F888199810E94A40C37
:100F3000009731F0998388831B830A8381E001C085
:100F400080E0DF91CF911F910F910895CF93DF93B0
:100F5000EC0188819981892B29F08A819B818617F0
:100F6000970760F4CE010E948C07882341F08C81A2
:100F70009D81892B19F4E881F981108281E0DF914C
:100F8000CF910895EF92FF920F931F93CF93DF932A
:100F9000EC017B018A01BA010E94A607811104C0FD
:100FA000CE010E947A0707C01D830C83B701888198
:100FB00099810E94B30DCE01DF91CF911F910F91C6
:100FC000FF90EF900895FC0111821082138212822B
:100FD0001582148216826115710559F0FB0101908A
:100FE0000020E9F7AF0141505109461B570B0C9403
:100FF000C2070895CF93DF93EC016115710561F08D
:10100000FB0101900020E9F7AF0141505109461B57
:10101000570B0E94C20702C00E947A07CE01DF91DF
:10102000CF9108950F931F93CF93DF93CDB7DEB782
:1010300062970FB6F894DEBF0FBECDBF8C01CB0117
:10104000F801118210821382128215821482168294
:1010500050E0BE016F5F7F4F0E94E10DBE016F5FE8
:101060007F4FC8010E94FA0762960FB6F894DEBF60
:101070000FBECDBFDF91CF911F910F910895EF92D9
:10108000FF920F931F93CF93DF93EC017B010C81B1
:101090001D816115710511F480E016C041155105DF
:1010A00091F0040F151FB8010E94A6078823A1F331
:1010B000288139818C819D81B701820F931F0E9405
:1010C000B30D1D830C8381E0DF91CF911F910F91B0
:1010D000FF90EF900895FB014481558160817181FB
:1010E0000C943F086115710559F0FB010190002037
:1010F000E9F7AF0141505109461B570B0C943F08CB
:1011000080E00895CF93DF9300D0CDB7DEB7698339
:101110001A8241E050E0BE016F5F7F4F0E943F089E
:101120000F900F90DF91CF910895CF93DF93EC0153
:10113000FB0144815581608171810E943F088111CA
:1011400003C0CE010E947A07CE01DF91CF910895AE
:10115000CF93DF93EC016115710569F0FB010190FC
:101160000020E9F7AF0141505109461B570B0E947F
:101170003F08811103C0CE010E947A07CE01DF91A2
:10118000CF910895FC01248135816217730748F4DB
:1011900080819181009729F0FC01E60FF71F808183
:1011A000089580E008958F929F92AF92BF92CF9260
:1011B000DF92EF92FF920F931F93CF93DF93EC0197
:1011C0005B0177FF04C081E0888B61E002C0188A70
:1011D00060E08B890E94BB04BD82AC820C851D85BA
:1011E000B801882777FD8095982F0E94060F6B0124
:1011F0007C01B501B7FE03C071956195710988271F
:1012000077FD8095982F0E94060F4B015C01688541
:101210007985882777FD8095982F0E94060F9B017E
:10122000AC01C501B4010E946B0E4B015C016A85E3
:101230007B85601B710B882777FD8095982F0E9416
:10124000060F9B01AC01C501B4010E94B60F9B01C2
:10125000AC01C701B6010E94030E0E94D30E7F832A
:101260006E83CE014596DF91CF911F910F91FF9034
:10127000EF90DF90CF90BF90AF909F908F900C94A5
:10128000F70A0F931F93CF93DF93EC018C010B5E52
:101290001F4F2A853B854C855D8569897A89C80100
:1012A0000E94790A6E857F85C8010E94F70A88EA44
:1012B00091E6DF91CF911F910F9108956F927F92E8
:1012C0008F929F92AF92BF92CF92DF92EF92FF9256
:1012D0000F931F93CF93DF93EC014A0139010E94D2
:1012E000620B80EF91E0998388831F821E8299862A
:1012F00088867B866A861D870C87FF86EE86188A1D
:10130000DA8AC98ABC8AAB8ACE0145960E945D0AF8
:1013100061E08B89DF91CF911F910F91FF90EF904A
:10132000DF90CF90BF90AF909F908F907F906F9005
:101330000C94820420EF31E0FC01318320830C9473
:10134000730B1F920F920FB60F9211242F933F939E
:101350004F935F936F937F938F939F93AF93BF93BD
:10136000EF93FF938091B20387FF05C01092850031
:10137000109284001AC02091B203332727FD3095C4
:101380008091B10390E0281739077CF48091B20373
:10139000992787FD9095FC01EE0FFF1FE80FF91FBD
:1013A000ED54FC4F808186FD15C08091B2038F5FA4
:1013B0008093B2032091B203332727FD30958091AB
:1013C000B10390E028173907BCF48091B2038C3048
:1013D0005CF112C08091B203992787FD9095FC01C2
:1013E000EE0FFF1FE80FF91FED54FC4F808160E006
:1013F0008F730E94BB04D9CF8091840090918500A7
:10140000049680349C4918F480E49CE905C08091DE
:1014100084009091850004969093890080938800C1
:101420008FEF8093B20338C0809184009091850043
:101430002091B203332727FD3095F901EE0FFF1FEE
:10144000E20FF31FED54FC4F21813281820F931F75
:1014500090938900809388008091B203992787FD3B
:101460009095FC01EE0FFF1FE80FF91FED54FC4FA4
:10147000808186FF11C08091B203992787FD9095E6
:10148000FC01EE0FFF1FE80FF91FED54FC4F8081A8
:1014900061E08F730E94BB04FF91EF91BF91AF9108
:1014A0009F918F917F916F915F914F913F912F917C
:1014B0000F900FBE0F901F9018952091B1032C3004
:1014C000A0F431E0320F3093B103FC012083822F6E
:1014D00090E0FC01EE0FFF1FE80FF91FED54FC4FE9
:1014E00088EB9BE09283818308952FEFFC0120839A
:1014F0000895DF92EF92FF920F931F93CF93DF93A4
:10150000EC01D62E7A01890188818C3008F066C002
:1015100061E08D2D0E9482048881A82FB0E0FD013A
:10152000EE0FFF1FEA0FFB1FED54FC4F2D2D2F7305
:101530009081907C922B908360E272E06E197F091B
:1015400077FF02C06D5F7F4F7595679575956795BD
:10155000698340E659E0401B510B57FF02C04D5FC5
:101560005F4F55954795559547954A836CE00E9486
:10157000B6119CE0899FB001112420E030E0A90160
:10158000460F571FFA01EE0FFF1FE40FF51FED5432
:10159000FC4F908196FD16C02F5F3F4F2C303105D8
:1015A00071F781110FC01092800082E0809381005A
:1015B0001092850010928400B19A80916F00826031
:1015C00080936F00888190E0FC01EE0FFF1FE80F11
:1015D000F91FED54FC4F8081806480838881DF9106
:1015E000CF911F910F91FF90EF90DF900895FC0134
:1015F00080818C3070F5918128E830E0291B310919
:1016000097FD3395220F331F220F331F6217730785
:101610007CF0928128E532E0291B310997FD339552
:10162000220F331F220F331F621773070CF49B0125
:101630004FB7F89490E0FC01EE0FFF1FE80FF91F81
:10164000ED54FC4F22503109220F331F3283218386
:101650004FBF0895FC018481958101969583848311
:1016600008950F931F93CF93DF9300D0CDB7DEB7CC
:101670008C0149835A830E94620B2AEF31E0F80102
:1016800031832083498146835A81578361E0842FC7
:101690000F900F90DF91CF911F910F910C948204C6
:1016A0002AEF31E0FC01318320830C94730BFC01A1
:1016B000758364830895FC0184819581089580E099
:1016C00090E00895FC0184E092E09183808373832D
:1016D00062831582148240E05BE460E070E087E0A2
:1016E00093E00C94070624E032E0FC013183208370
:1016F0000895FC01828193810895CF93DF93823016
:10170000910510F482E090E0E091D903F091DA03C2
:1017100020E030E0A0E0B0E0309739F14081518125
:1017200048175907B8F04817590771F48281938117
:10173000109729F013969C938E9312972CC0909338
:10174000DA038093D90327C02115310531F0421700
:10175000530718F0A901DB0101C0EF019A01BD0197
:10176000DF010280F381E02DD7CF21153105F9F09B
:10177000281B390B2430310580F48A819B81611547
:10178000710521F0FB019383828304C09093DA03F7
:101790008093D903FE01329644C0FE01E20FF31F8D
:1017A0008193919322503109398328833AC0209143
:1017B000D7033091D803232B41F420911A013091A3
:1017C0001B013093D8032093D70320911801309147
:1017D00019012115310541F42DB73EB740911C0187
:1017E00050911D01241B350BE091D703F091D803D4
:1017F000E217F307A0F42E1B3F0B2817390778F0E8
:10180000AC014E5F5F4F2417350748F04E0F5F1F46
:101810005093D8034093D7038193919302C0E0E0A3
:10182000F0E0CF01DF91CF910895CF93DF93009740
:1018300009F487C0FC01329713821282C091D90348
:10184000D091DA03209781F420813181280F391F4C
:101850008091D7039091D8038217930779F5F0937D
:10186000D803E093D7036DC0DE0120E030E0AE176F
:10187000BF0750F412964D915C9113979D0141154D
:10188000510509F1DA01F3CFB383A283408151817D
:10189000840F951F8A179B0771F48D919C91119766
:1018A000840F951F02969183808312968D919C914F
:1018B0001397938382832115310529F4F093DA037A
:1018C000E093D9033EC0D9011396FC93EE9312978F
:1018D0004D915D91A40FB51FEA17FB0779F4808144
:1018E0009181840F951F0296D90111969C938E9336
:1018F0008281938113969C938E931297E0E0F0E09F
:101900008A819B81009719F0FE01EC01F9CFCE018D
:10191000029628813981820F931F2091D70330913D
:10192000D8032817390769F4309729F41092DA039D
:101930001092D90302C013821282D093D803C093AD
:10194000D703DF91CF9108956F927F928F929F92EC
:10195000AF92BF92CF92DF92EF92FF920F931F93BD
:10196000CF93DF93EC01CB01209781F4DF91CF91EE
:101970001F910F91FF90EF90DF90CF90BF90AF90AD
:101980009F908F907F906F900C947D0BFE01E60FDF
:10199000F71F9E0122503109E217F30708F4ACC08B
:1019A000D9010D911C91119706171707B8F0053052
:1019B000110508F49FC0A801445051094617570764
:1019C00008F498C002501109061B170B01931193DC
:1019D0006D937C93CF010E94150C8CC05B01A01A03
:1019E000B10A4E01800E911EA091D903B091DA0385
:1019F000612C712C60E070E0109709F449C0A815C3
:101A0000B905C9F5ED90FC901197670142E0C40E4D
:101A1000D11CCA14DB0478F147018A189B086401C1
:101A200042E0C40ED11C1296BC9012971396AC9152
:101A3000B5E0CB16D10440F0B282A38391828082BC
:101A4000D9018D939C9309C00E5F1F4F0E0D1F1D72
:101A5000F90111830083EB2DFA2F6115710531F027
:101A6000DB011396FC93EE93129744C0F093DA03D4
:101A7000E093D9033FC06D917C911197661677066C
:101A800008F43B01BD0112960D90BC91A02DB4CF7E
:101A90006091D7037091D80368157905E9F4681649
:101AA0007906D0F440911801509119014115510562
:101AB00041F44DB75EB760911C0170911D01461B4A
:101AC000570BE417F507C0F4F093D803E093D7035E
:101AD000F901918380830EC00E947D0B7C010097E9
:101AE00059F0A801BE010E94A10DCE010E94150C63
:101AF000C70104C0CE0102C080E090E0DF91CF9129
:101B00001F910F91FF90EF90DF90CF90BF90AF901B
:101B10009F908F907F906F900895662777270C9401
:101B20001910F8940C9444129111EAC3803219F000
:101B300089508550D0F708954CE052E00E94BA0DCC
:101B40000895FB01DC0102C001900D92415050400C
:101B5000D8F70895FB01DC018D91019080190110E7
:101B6000D9F3990B0895FB01DC0101900D9200203F
:101B7000E1F70895FA01A191B081009719F4109747
:101B8000E1F0CD01DC01CD010D90002011F4C00188
:101B900013C0FB012191222319F02015D9F7F3CFAF
:101BA000FB012191201519F41E92119606C02223E3
:101BB000C1F70D900020A1F7D001FA01A193B083E5
:101BC0000895FB019F01E8944230C4F04532B4F41B
:101BD0004A3029F497FB1EF4909581959F4F642F0E
:101BE00077270E94C211805D8A330CF0895D819352
:101BF000CB010097A1F716F45DE251931082C90161
:101C00000C949B115058BB27AA270ED075C166D1E2
:101C100030F06BD120F031F49F3F11F41EF45BC122
:101C20000EF4E095E7FB51C1E92F77D180F3BA17A5
:101C3000620773078407950718F071F49EF58FC14A
:101C40000EF4E0950B2EBA2FA02D0B01B9019001D7
:101C50000C01CA01A0011124FF27591B99F0593F1B
:101C600050F4503E68F11A16F040A22F232F342F63
:101C70004427585FF3CF469537952795A795F040B1
:101C80005395C9F77EF41F16BA0B620B730B840BC6
:101C9000BAF09150A1F0FF0FBB1F661F771F881F7E
:101CA000C2F70EC0BA0F621F731F841F48F48795D6
:101CB00077956795B795F7959E3F08F0B3CF9395C5
:101CC000880F08F09927EE0F979587950895D9D03A
:101CD00008F481E008950CD00FC107D140F0FED088
:101CE00030F021F45F3F19F0F0C0511139C1F3C059
:101CF00014D198F39923C9F35523B1F3951B550BD0
:101D0000BB27AA2762177307840738F09F5F5F4FCE
:101D1000220F331F441FAA1FA9F333D00E2E3AF00F
:101D2000E0E830D091505040E695001CCAF729D029
:101D3000FE2F27D0660F771F881FBB1F2617370778
:101D40004807AB07B0E809F0BB0B802DBF01FF27A8
:101D500093585F4F2AF09E3F510568F0B6C000C10E
:101D60005F3FECF3983EDCF3869577956795B795E2
:101D7000F7959F5FC9F7880F911D9695879597F9FD
:101D80000895E1E0660F771F881FBB1F6217730776
:101D90008407BA0720F0621B730B840BBA0BEE1F8B
:101DA00088F7E095089504D06894B111D9C00895DA
:101DB000BCD088F09F5790F0B92F9927B751A0F069
:101DC000D1F0660F771F881F991F1AF0BA95C9F7CF
:101DD00012C0B13081F0C3D0B1E00895C0C0672F08
:101DE000782F8827B85F39F0B93FCCF3869577957F
:101DF0006795B395D9F73EF4909580957095619568
:101E00007F4F8F4F9F4F0895E89409C097FB3EF492
:101E100090958095709561957F4F8F4F9F4F992337
:101E2000A9F0F92F96E9BB279395F69587957795B5
:101E30006795B795F111F8CFFAF4BB0F11F460FF75
:101E40001BC06F5F7F4F8F4F9F4F16C0882311F0CD
:101E500096E911C0772321F09EE8872F762F05C0E1
:101E6000662371F096E8862F70E060E02AF09A957C
:101E7000660F771F881FDAF7880F9695879597F971
:101E80000895990F0008550FAA0BE0E8FEEF16160B
:101E90001706E807F907C0F012161306E407F5075E
:101EA00098F0621B730B840B950B39F40A2661F0D2
:101EB000232B242B252B21F408950A2609F4A14075
:101EC000A6958FEF811D811D089597F99F6780E882
:101ED00070E060E008959FEF80EC089500240A947C
:101EE0001616170618060906089500240A941216F5
:101EF0001306140605060895092E0394000C11F428
:101F0000882352F0BB0F40F4BF2B11F460FF04C0D4
:101F10006F5F7F4F8F4F9F4F089557FD9058440F2D
:101F2000551F59F05F3F71F04795880F97FB991F38
:101F300061F09F3F79F087950895121613061406F5
:101F4000551FF2CF4695F1DF08C016161706180682
:101F5000991FF1CF86957105610508940895E8945D
:101F6000BB2766277727CB0197F908950BD0C4CFFD
:101F7000B5DF28F0BADF18F0952309F0A6CFABCF74
:101F80001124EECFCADFA0F3959FD1F3950F50E057
:101F9000551F629FF001729FBB27F00DB11D639F1B
:101FA000AA27F00DB11DAA1F649F6627B00DA11DC1
:101FB000661F829F2227B00DA11D621F739FB00D67
:101FC000A11D621F839FA00D611D221F749F3327D7
:101FD000A00D611D231F849F600D211D822F762F70
:101FE0006A2F11249F5750408AF0E1F088234AF06D
:101FF000EE0FFF1FBB1F661F771F881F91505040B9
:10200000A9F79E3F510570F060CFAACF5F3FECF378
:10201000983EDCF3869577956795B795F795E795A4
:102020009F5FC1F7FE2B880F911D9695879597F9B5
:102030000895A0E0B0E0EFE1F0E10C94FA118B011B
:102040006115710521F0DB018C9311969C93EC01D5
:102050005E01BFEFAB1ABB0A7501C8808C2D90E002
:102060000E94940D892B11F0E501F2CFEDE2CE1222
:1020700008C07E01F2E0EF0EF11CC980DD24D3948C
:1020800009C02BE2C21205C07E0142E0E40EF11C41
:10209000C980D12CE701219743E050E060EC70E06B
:1020A000CE010E948311892BD1F4E701229645E0ED
:1020B00050E06BEB70E0CE010E948311892B11F48C
:1020C000E70127960115110519F0D801CD93DC938E
:1020D000D11008C160E070E080E89FE70CC143E0E8
:1020E00050E068EB70E0CE010E948311892B59F417
:1020F0000115110509F4FBC0B2E0EB0EF11CF8016B
:10210000F182E082F4C0F70160E070E0CB01C0E052
:10211000D0E07F01A0EDAA2EAC0C29E02A1530F109
:102120004D2D4260B42E2D2D2870D2FE04C02111F9
:1021300025C0219623C021112197A5E0B0E09B0185
:10214000AC010E94AB11660F771F881F991F6A0DA3
:10215000711D811D911D6839A9E97A078A07A9E1D6
:102160009A0760F0BD2DB660BB2E08C02EEFA212FC
:102170000AC0D3FC50C04D2D4860B42E3196D70113
:10218000CC90DB2CC6CF2C2D2F7D253409F043C0FD
:10219000A081AD3241F4BD2DB061DB2E7F0122E084
:1021A000E20EF11C0CC07F01AB3231F04FEFE41AAC
:1021B000F40A21E030E006C0A2E0EA0EF11CA181A1
:1021C00022E030E0A053AA3018F0E21AF30A23C04C
:1021D000F70120E030E02038BCE03B075CF4A901C7
:1021E000440F551F440F551F240F351F220F331F57
:1021F0002A0F311DAF014F5F5F4F7A01A081A053BD
:10220000AA3010F4FA01E7CFD4FE03C0319521952E
:102210003109C20FD31FD1FE09C00115110531F0DC
:10222000E1E0EE1AF108D801ED92FC920E94040F51
:102230002D2D2370233019F06B017C0106C06B013A
:102240007C01F7FAF094F7F8F09420E030E0A9016F
:10225000C701B6010E94670E882309F440C0D7FF6A
:1022600006C0D195C195D10907ED10E002C00FEE6F
:1022700010E04801B8E18B1A910890E2A92EB12C28
:10228000F8014590559065907490CA15DB055CF097
:10229000A3019201C701B6010E94B60F6B017C0138
:1022A000CA19DB09F2CF04501109B594A794081597
:1022B000190531F78E2D880F8F2D881F8F3F49F01C
:1022C00020E030E0A901C701B6010E94670E81112C
:1022D00006C082E290E09093DC038093DB03C701A9
:1022E000B60109C060E070E080E89FEF04C060E0E4
:1022F00070E080EC9FE7CDB7DEB7E0E10C941612FA
:10230000992788270895FB01DC014150504088F04F
:102310008D9181341CF08B350CF4805E65916134B5
:102320001CF06B350CF4605E861B611171F3990B28
:102330000895881BFCCFDC01FC01672F7191772386
:10234000E1F7329704C07C916D9370836291AE1770
:10235000BF07C8F308950E942F12A59F900DB49F48
:10236000900DA49F800D911D11240895991B79E073
:1023700004C0991F961708F0961B881F7A95C9F715
:1023800080950895AA1BBB1B51E107C0AA1FBB1F64
:10239000A617B70710F0A61BB70B881F991F5A95F1
:1023A000A9F780959095BC01CD010895A1E21A2E60
:1023B000AA1BBB1BFD010DC0AA1FBB1FEE1FFF1FE9
:1023C000A217B307E407F50720F0A21BB30BE40B39
:1023D000F50B661F771F881F991F1A9469F7609580
:1023E0007095809590959B01AC01BD01CF0108953A
:1023F0002F923F924F925F926F927F928F929F9215
:10240000AF92BF92CF92DF92EF92FF920F931F9302
:10241000CF93DF93CDB7DEB7CA1BDB0B0FB6F894B3
:10242000DEBF0FBECDBF09942A88398848885F84F3
:102430006E847D848C849B84AA84B984C884DF8064
:10244000EE80FD800C811B81AA81B981CE0FD11D48
:102450000FB6F894DEBF0FBECDBFED010895A29F69
:10246000B001B39FC001A39F700D811D1124911D68
:10247000B29F700D811D1124911D0895EE0FFF1F55
:102480000590F491E02D099410E0C8EFD0E004C06D
:10249000FE010E9440122296CA3FD107C9F7F89464
:0224A000FFCF6C
:1024A20001000000700268028A02D802C002A8027B
:1024B200900284027E0278020000DD0380007365D0
:1024C20074757044656C6179007A79336200322EDA
:1024D200312E32006D6F746F72506F7274486F726A
:1024E200006D6F746F7253746264486F72006D6F27
:1024F200746F72506F7274566572006D6F746F7282
:10250200537462645665720061726D4D6F64756CCE
:1025120065730073656E6453656E736F72526561A5
:1025220064696E677300726566726573685261747E
:102532006500666F72776172644C45440064657031
:10254200746852656164696E67006465707468528C
:10255200656164696E673200524F56200020762E04
:102562002000206C697374656E696E6720746F2039
:10257200636F6D6D616E64732E002C0000000000AD
:102582004B05EB06F1041E050305400500000000A3
:10259200D3085B0B410900000000570B2A0B5F0BAD
:0C25A20000000000570B5B0B5F0B004BB0
:00000001FF
